{
    "contractName": "MyDeFiProject",
    "abi": [
        {
            "inputs": [
                {
                    "internalType": "address",
                    "name": "daiAddress",
                    "type": "address"
                }
            ],
            "stateMutability": "nonpayable",
            "type": "constructor"
        },
        {
            "inputs": [
                {
                    "internalType": "address",
                    "name": "recipient",
                    "type": "address"
                },
                {
                    "internalType": "uint256",
                    "name": "amount",
                    "type": "uint256"
                }
            ],
            "name": "foo",
            "outputs": [],
            "stateMutability": "nonpayable",
            "type": "function"
        }
    ],
    "bytecode": "608060405234801561001057600080fd5b506040516101eb3803806101eb83398101604081905261002f91610054565b600080546001600160a01b0319166001600160a01b0392909216919091179055610084565b60006020828403121561006657600080fd5b81516001600160a01b038116811461007d57600080fd5b9392505050565b610158806100936000396000f3fe608060405234801561001057600080fd5b506004361061002b5760003560e01c8063bd0d639f14610030575b600080fd5b61004361003e3660046100c1565b610045565b005b60005460405163a9059cbb60e01b81526001600160a01b038481166004830152602482018490529091169063a9059cbb906044016020604051808303816000875af1158015610098573d6000803e3d6000fd5b505050506040513d601f19601f820116820180604052508101906100bc91906100f9565b505050565b600080604083850312156100d457600080fd5b82356001600160a01b03811681146100eb57600080fd5b946020939093013593505050565b60006020828403121561010b57600080fd5b8151801515811461011b57600080fd5b939250505056fea2646970667358221220c8500febe3dcd1c22ffb99a139735ad6c8cbbe2699e283c518d63cabd65bc8c164736f6c634300080d0033",
    "sourcePath": "c:/Users/yanni/Documents/Formation Alyra/DeFintro/contracts/MyDeFiProject.sol",
    "compiler": {
        "name": "solc",
        "version": "0.8.13+commit.abaa5c0e"
    },
    "functionHashes": {
        "foo(address,uint256)": "bd0d639f"
    },
    "gasEstimates": {
        "creation": {
            "codeDepositCost": "68800",
            "executionCost": "infinite",
            "totalCost": "infinite"
        },
        "external": {
            "foo(address,uint256)": "infinite"
        }
    }
}